:020000040800F2
:1000000070090020C1010008C9010008CB010008E7
:10001000CD010008CF010008D10100080000000058
:10002000000000000000000000000000D3010008F4
:10003000D501000800000000D7010008D920000801
:10004000DB010008DB010008DB010008DB01000820
:10005000DB010008DB010008DB010008DB01000810
:10006000DB010008DB010008DB010008DB01000800
:10007000DB010008DB010008DB010008DB010008F0
:10008000DB010008DB010008DB010008DB010008E0
:10009000DB010008DB010008DB010008DB010008D0
:1000A000DB010008DB010008DB010008DB010008C0
:1000B000DB010008DB010008DB010008DB010008B0
:1000C000DB010008DB010008DB010008DB010008A0
:1000D000DB010008DB010008DB010008DB01000890
:1000E000DB010008DB010008DB010008DB01000880
:1000F000DB010008DB010008DB010008DB01000870
:10010000DB010008DB010008DB010008DB0100085F
:10011000DB010008DB010008DB010008DB0100084F
:10012000DB010008DB010008DB010008DB0100083F
:10013000DB010008DB010008DB010008DB0100082F
:10014000DB010008DB010008DB010008DB0100081F
:10015000DB010008DB010008DB010008DB0100080F
:10016000DB010008DB010008DB010008DB010008FF
:10017000DB010008DB010008DB01000800000000D3
:10018000DB010008DB010008DB010008DB010008DF
:10019000DB010008DB010008DB010008DB010008CF
:1001A000DB010008DB010008DB010008DFF80CD0F0
:1001B00000F0A6F900480047FD270008700900205C
:1001C0000648804706480047FEE7FEE7FEE7FEE7F1
:1001D000FEE7FEE7FEE7FEE7FEE7FEE77521000823
:1001E000AD0100082DE9FE4F81EA030404F000444C
:1001F00021F0004100944FF0000B23F0004350EA3F
:1002000001045ED052EA03045BD0C3F30A54C1F385
:100210000A552C44A4F2F3340194A0FB0254C1F318
:10022000130141F48011C3F3130343F4801301FB62
:10023000024400FB034E840A970A44EA815447EAC9
:100240008357A4FB076802958D0A05FB07854FEAD3
:10025000932C04FB0C542705029D4FEA065847EAED
:100260001637B5EB08056EEB070C870E920E47EAC2
:10027000811742EA8312A7FB0201B6EB0B0164EB84
:1002800000042B0D43EA0C335E1844EB1C50DA4695
:100290005146E7FB0201C5F313044FEA0B3343EA6F
:1002A00014534FEA0432019C43EA0603A4F10C0400
:1002B0000294009CCDE900B400F0D3F803B0BDE88F
:1002C000F08F00200146F9E72DE9F04D81EA0304A3
:1002D00004F0004B21F0004514464FF0000A23F0D3
:1002E000004150EA050220D054EA01021DD0C5F3B6
:1002F0000A570246C5F31303C1F31300C1F30A56AC
:1003000040F4801543F48013A7EB0608101BD64673
:1003100008F2FD3873EB050002D308F1010801E093
:1003200092185B41B8F1000F03DA00200146BDE8E6
:10033000F08D00204FF48011064684460EE0171B16
:1003400073EB050705D3121B63EB050306434CEA69
:10035000010C49084FEA300092185B4150EA01074E
:10036000EDD152EA030012D082EA040083EA0501CB
:10037000084305D0101BAB4106D20122002306E042
:1003800000224FF0004302E06FF0010253101AEB1D
:1003900006004CEB085110EB0A0041EB0B01BDE8E5
:1003A000F04D00F04FB80EB540F2334102910021FC
:1003B000CDE900110A460B4600F053F803B000BD2A
:1003C000C1F30A5210B5C1F3130140F2FF3341F4F7
:1003D00080119A4201DA002010BD40F233439A4264
:1003E000A2F2334203DC524200F01CF810BD9040F0
:1003F00010BD000030B5041E71F1000404DB4FF0A5
:100400000044404264EB0101141E73F1000405DB5B
:100410001C464FF00043524263EB04038B4208BF7B
:10042000824230BD202A04DB203A21FA02F000216A
:10043000704721FA02F3D040C2F1200291400843F4
:100440001946704710B5141E73F1000408DA401CF9
:1004500041F1000192185B411A4301D120F00100E3
:1004600010BD2DE9F04D92469B4611B1B1FA81F2D3
:1004700002E0B0FA80F22032904600F053F80446D1
:100480000F4640EA0A0041EA0B0153465A46084328
:1004900013D0114653EA010019D0C8F1400250466A
:1004A000FFF7C0FF05460E4650465946424600F04B
:1004B00039F8084305D0012004E020463946BDE85C
:1004C000F08D0020054346EAE0762C4337430A9836
:1004D0006305E40AA0EB08000022FD0A44EA475441
:1004E0000A3002D500200146E9E7010510196941EB
:1004F000DDE9084500196941BDE8F04DA2E70000BB
:10050000064C074D06E0E06840F0010394E8070060
:1005100098471034AC42F6D3FFF74CFE182A000877
:10052000382A0008202A04DB203A00FA02F10020D1
:1005300070479140C2F1200320FA03F31943904021
:10054000704700004A4910B5D1F8042322F4403224
:10055000C1F80423D1F8042343681A43C1F80423E3
:1005600001684A6822F480724A6001684A68036937
:1005700042EA03224A6001684A6822F040724A60F7
:1005800001684A6883681A434A6001688A6822F4ED
:1005900000628A6001688A68C3681A438A60C16A17
:1005A0006FF07062D14201688A6822F070628A60DE
:1005B00001688A680CD0C36A1A438A6001688A6835
:1005C00022F040528A6001688A68036B1A4301E096
:1005D00022F040528A6001688A6822F002028A6032
:1005E00001688A68836942EA43028A60416A002995
:1005F00001684A6815D042F400624A6001684A689E
:1006000022F460424A6001684B684FF46044826A99
:1006100094FAA4F4B4FA84F4521EA24013434B603B
:1006200002E022F400624A600168CA6A22F47002A1
:10063000CA620168CA6A038C0E4C04EB03531A4366
:10064000CA6201688A6822F400728A6001688A6856
:10065000C36942EA43228A6001688A6822F48062A0
:100660008A6001688A68406942EA8020886010BD1B
:10067000002001400000F0FF78B50024009490F8BD
:100680003C20012A19D0012280F83C200A68072367
:100690000568092A13D9EE680A3A02EB4202934030
:1006A0009E43EE600B788A680A3B03EB43039A4053
:1006B0000368DD682A43DA6010E0022078BD2E6905
:1006C00002EB420293409E432E610A788B6802EB54
:1006D00042029340026815692B4313614A681F2345
:1006E000072A13D205686E6B521E02EB82029340FA
:1006F0009E436E630A8893B20A79521E02EB82020D
:1007000093400268556B2B43536327E005680D2A1D
:1007100012D22E6BD21F02EB820293409E432E63B5
:100720000B790A88DB1F92B203EB83039A400368BC
:100730001D6B2A431A6311E0EE6A0D3A02EB820246
:1007400093409E43EE620B790A880D3B92B203EB15
:1007500083039A400368DD6A2A43DA62174A036812
:10076000934208D10B68122B05D1D2F8043343F41D
:100770008003C2F80433036893421BD1104B0D6809
:100780009D4201D0112D15D1D2F8045345F4000536
:10079000C2F80453096899420CD10A490A4A096807
:1007A000B1FBF2F101EB8101490000E0491E00912B
:1007B0000029FBD180F83C40002078BD002001409A
:1007C000120000100000002040420F0070B504002D
:1007D00004D094F83D00002510B106E0012070BD62
:1007E00084F83C50204600F00FF8022084F83D00C9
:1007F0002046FFF7A7FE2564012084F83D0084F819
:100800003C50002070BD000030B5134D046800223C
:1008100012490323124887B0AC4209D10C6844F452
:1008200080740C60096801F48071059101210BE06E
:100830000C4DAC420ED10C6844F400740C60096895
:1008400001F4007105910221CDE90013029269467D
:1008500000F056F907B030BD002001404438024096
:1008600000080240002101402DE9F041040004D0BD
:1008700094F83800002518B107E00120BDE8F081A8
:1008800084F83950204600F093F8022084F83800AC
:100890002068016821F0020101602068016841F0D0
:1008A0000101016000F018FA0746032605E000BFC9
:1008B00000F012FAC01B0A2863D820684068C007FD
:1008C000F6D020684168C90768D0A169012901688C
:1008D0003FD021F080010160E069012820680168B3
:1008E0003AD021F040010160206A012820680168A7
:1008F00035D021F020010160606A0128206801687C
:1009000030D021F010010160A06A01282068016840
:100910002BD021F008010160E06A012820680168FD
:1009200026D021F004010160D4E902010843D4E992
:100930000412114308436168491E08432168C861D5
:100940002068016821F00101016000F0C5F9074647
:100950001CE041F08001BEE741F04001C3E741F0F7
:100960002001C8E741F01001CDE741F00801D2E7CE
:1009700041F00401D7E700BF00F0AEF9C01B0A2820
:1009800004D904F8386F0320657077E72068406861
:10099000C007F1D120684068C00703D0042084F864
:1009A00038006AE7E563012084F83800002065E735
:1009B000F0B5234BDFF884E0D0F800C019680024BC
:1009C0000225032609271F481F4A491C87B0F44502
:1009D0000DD11960012907D1116841F00071116032
:1009E000116801F0007105914FF440711CE0DFF8CF
:1009F0005CE0F44520D1D2F800C04CF0806CC2F825
:100A000000C0D2F800C001290CF0806CCDF814C0F1
:100A1000196007D1116841F000711160116801F08F
:100A2000007105914FF44051CDE9001502AA6946C5
:100A300082E8D00000F064F807B0F0BD0064004028
:100A400030000020000402404038024000680040AE
:100A500070B54379012B1AD0012646710223037128
:100A600005682C6840F6FE7393409C43D1E9003141
:100A70000B43934023432B6001680B68C0249440D0
:100A8000A3430B60067100214171084670BD02202E
:100A900070BD70B5040003D02079002510B105E0C9
:100AA000012070BD6571204600F008F80220207119
:100AB000256101202071002070BD000000B5006894
:100AC0000C4987B0884212D10B48016841F00051AF
:100AD00001600068694600F00050059030200090E9
:100AE0000320019000200290044800F009F807B0AC
:100AF00000BD000000740040403802400000024089
:100B00002DE9F84FDFF890B100224FF001084FF0C7
:100B1000030A4FF00F090BF1040E00BF0B6808FA2F
:100B200002F42340A3426ED14D68022D01D0122D54
:100B30000ED1D50800EB850CDCF820505607F70ED7
:100B400009FA07F6B5430E69BE402E43CCF8206083
:100B5000066855000F790AFA05FC07F0030726EA34
:100B60000C06AF40374307604E68012E05D0022EB9
:100B700003D0112E01D0122E0ED18768CE6827EA3D
:100B80000C07AE403E4386604668A6430C79C4F32A
:100B90000014944034434460C4688E6824EA0C0412
:100BA000AE402643C6604C68E4006FD53B4C2568D8
:100BB00045F480452560246822F0030504F4804450
:100BC0000094374C2E19D6F8084895072F0F09FACC
:100BD00007F5AC43334DA84201D100252EE0324D3C
:100BE000A84201D1012529E0304DA84201D10225BA
:100BF00024E02F4DA84201D103251FE02D4DA8422E
:100C000002D104251AE041E02B4DA84201D105256F
:100C100014E02A4DA84201D106250FE0284DA84234
:100C200001D107250AE0274DA84201D1082505E09A
:100C3000254DA84201D1092500E00A25BD402543E4
:100C4000C6F80858DBF800405D464E689C43F60342
:100C500000D51C432C60DEF8004075464E689C436E
:100C6000B60300D51C432C600B4D08352C684E682C
:100C70009C43F60200D51C432C60074D0C352C68B4
:100C80004E689C43B60200D51C432C60521C102AAF
:100C9000FFF444AFBDE8F88F003C01404438024007
:100CA0000030014000000240000402400008024001
:100CB000000C0240001002400014024000180240E4
:100CC000001C024000200240002402400AB1816161
:100CD00070470904FBE70000014800687047000006
:100CE0002000002070B5040004D094F835000025E1
:100CF00010B106E0012070BD84F83450204600F0A9
:100D000071F8022084F835002068016821F00101A3
:100D1000016000F01DFA31492268B0FBF1F1516029
:100D20002F4A6368934206D94FF4967359434FF4A0
:100D30007A73B1FBF3F12368491C1962616891422F
:100D40000BD84900B0FBF1F2C2F30B02042A01D226
:100D5000042019E0B0FBF1F016E0A36883B301EBC7
:100D6000C10202EB0112B0FBF2F242F48042120522
:100D70002CD06BB301EBC10202EB0111B0FBF1F01F
:100D800040F4804040F400402168C861D4E9070184
:100D9000084321680860D4E903100843216888608B
:100DA000D4E9050108432168C8602068016841F062
:100DB00001010160A563012084F83500002070BDA9
:100DC000FFE701EB4102B0FBF2F2D0E70120DBE7E5
:100DD00001EB4101B0FBF1F0D4E7000040420F000D
:100DE000A086010000B500680E4987B0884216D180
:100DF000C020009012200190012002900320039057
:100E00000420049069460848FFF77AFE0748016805
:100E100041F400110160006800F40010059007B073
:100E200000BD000000540040000402404038024071
:100E300002480168491C0160704700002000002042
:100E40000B4810B5016841F400710160016841F47C
:100E500080610160016841F480710160032000F04D
:100E600045F8002000F006F800F015F8002010BD4D
:100E7000003C024010B5044600F050F94FF47A717E
:100E8000B0FBF1F000F018FC00222146501E00F0EB
:100E90000DF8002010BD10B5032000F027F8002247
:100EA000BDE810401146501EAFF30080F0B40E4B69
:100EB0001B680C46C3F30223C3F10705042D00D9B8
:100EC0000425191D072901D2002300E0DB1E01269D
:100ED00006FA05F1491E214099409E40761E1640B3
:100EE0003143F0BC01F0D2B80CED00E0064900F04F
:100EF000070208684FF6FF03184040EA0220034A41
:100F000010430860704700000CED00E00000FA0597
:100F10002DE9F05FDFF8FCA104460F46DAF8000087
:100F2000DFF8F48100F00F017B4807F0FF0941F280
:100F3000883508F10808B94262D28AF80090DAF8D8
:100F4000001001F00F01B9427ED12178890707D541
:100F5000D8F80020A36822F0F0021A43C8F8002055
:100F60002178C9072ED0616801291AD002291BD027
:100F7000032919D000688007002865DAD8F8000036
:100F8000464620F003000843C8F80000FFF7A4FE1F
:100F900007466068012810D002281AD003281ED006
:100FA00029E000688003E7E700688001E4E700BF0C
:100FB000FFF792FEC01BA84259D83068C0F38100E9
:100FC0000128F5D189E000BFFFF786FEC01BA842CB
:100FD0004DD83068C0F381000228F5D17DE030683B
:100FE000FFF77AFEC01BA842F9D940E0FFF774FE74
:100FF000C01BA8423BD8306810F00C0FF6D16CE053
:101000002178890707D5D8F80020A36822F0F002DC
:101010001A43C8F800202178C9074CD0616801291B
:1010200028D0022929D0032927D00068800700286A
:1010300049DAD8F8002022F003020A43C8F8002059
:10104000FFF74AFE064600E03DE0606801281DD03B
:10105000022829D0032838D0AB464546286810F02E
:101060000C0F28D0FFF738FE811B5945F6D9032015
:10107000BDE8F09F00688003D9E700688001D6E7EB
:10108000FFF72AFE811B594502D9F0E7AB464546DA
:101090002868C0F381000128F2D10CE0FFF71CFEA4
:1010A000811B594502D9E2E7AB4645462868C0F3A3
:1010B00081000228F2D18AF80090DAF8000000F0EE
:1010C0000F00B84209D00120D2E744462068FFF75C
:1010D00003FE801BA842F9D9C9E72078400707D54D
:1010E000D8F80010E26821F4E0511143C8F800106C
:1010F0002078000708D5D8F80010226921F4604153
:1011000041EAC201C8F800100020FFF7B3FE00203A
:10111000AEE70000003C02400038024010B500F08D
:1011200043F808490968F02292FAA2F201F0F001AE
:10113000B2FA82F2D140044A515CC84003490860C7
:1011400010BD000008380240082A000800000020F6
:1011500010B5FFF7E3FF074909684FF4E05292FA30
:10116000A2F201F4E051B2FA82F2D140024A515C9B
:10117000C84010BD08380240082A000810B5FFF723
:10118000CDFF074909684FF4604292FAA2F201F4D8
:101190006041B2FA82F2D140024A515CC84010BDAF
:1011A00008380240082A000830B51948006810F0D5
:1011B0000C01184812D0441004290ED008290DD172
:1011C0001349091F0A6802F03F030A68550247F6EF
:1011D000C07204D5B4FBF3F003E0204630BDB0FB91
:1011E000F3F00B680968134092FAA2F2B2FA82F2A5
:1011F000D34058434FF4403292FAA2F201F4403106
:10120000B2FA82F2D140491C4900B0FBF1F030BD86
:10121000083802400024F4002DE9F84F0446007815
:10122000DFF81CA3C74DC0074FF000064BD0DAF81B
:1012300000105046C1F38101012908D00068C0F3B5
:10124000810002280AD1281D0068400206D52868BE
:10125000800338D56068002871D034E0DFF8E4926C
:1012600009F1020989F80060FFF736FD804641F276
:10127000883705E0FFF730FDA0EB0800B8427DD8C5
:1012800028688003F6D4207989F80000606868B186
:10129000FFF722FD804605E0FFF71EFDA0EB0800EA
:1012A000B842ECD828688003F6D50CE0FFF714FDAF
:1012B000804605E0FFF710FDA0EB0800B842DED83D
:1012C00028688003F6D420789F4F80074FF0010BE9
:1012D00045D5DAF80010504611F00C0F4FF0F80920
:1012E00009D00068C0F3810002280BD19448001F88
:1012F0000068400206D42868800714D5E0680128F9
:101300001DD110E0E068D8B1C7F800B0FFF7E4FCE9
:10131000804605E0FFF7E0FCA0EB08006428AED8AB
:1013200028688007F6D5286899FAA9F22169B2FAE7
:1013300082F220F0F8009140084328600FE0FCE0C2
:101340003E60FFF7C9FC804606E000BFFFF7C4FC23
:10135000A0EB0800642811D828688007F6D420780C
:10136000000729D5DFF8D8917848616909F16C093F
:1013700099B1C0F800B0FFF7AFFC00E086E080460E
:1013800006E000BFFFF7A8FCA0EB080064287DD8AA
:10139000D9F800008007F5D50EE00660FFF79CFC49
:1013A000804605E0FFF798FCA0EB080064286DD8A4
:1013B000D9F800008007F5D4207840075AD5604856
:1013C0003830016841F0805101600068DFF8809199
:1013D00000F080500090D9F8001041F48071C9F8F5
:1013E0000010FFF779FC804606E000BFFFF774FCB1
:1013F000A0EB0800642849D8D9F80000C005F5D54D
:10140000DFF83C8108F1680888F80060FFF764FCA9
:1014100041F28839009005E0FFF75EFC0099411A1F
:10142000494533D8D8F800008007F5D4207A88F8E9
:101430000000A06878B1FFF74FFC009006E000BF05
:10144000FFF74AFC0099411A49456ED8D8F80000C8
:101450008007F5D50EE0FFF73FFC009006E000BFE7
:10146000FFF73AFC0099411A49455ED8D8F80000C8
:101470008007F5D4A069E8B3DAF80010C1F3810160
:1014800002295AD002283E6605D000E04DE0FFF761
:1014900023FC04464CE0FFF71FFC064605E000BFB6
:1014A000FFF71AFC801B64283FD828688001F7D416
:1014B000D4E90701084347F6C07292FAA2F2616AC2
:1014C000B2FA82F29140A26A4FF0FF3303EB52026C
:1014D0004FF4403393FAA3F3B3FA83F39A401143E2
:1014E00008434FF0706292FAA2F2E16AB2FA82F215
:1014F000914000E01FE008431149091F0860C7F848
:1015000060B0FFF7E9FB044605E000BFFFF7E4FB2E
:10151000001B642809D828688001F7D50BE000BFBC
:10152000FFF7DAFB001B642802D90320BDE8F88F1F
:1015300028688001F4D40020F8E70120F6E70000D5
:10154000083802400038024000004742800E4742FF
:101550000070004070B5040004D094F851000025DC
:1015600010B106E0012070BD84F85050204600F014
:1015700033F8022084F851002068016821F040010E
:101580000160D4E901010843D4E90312114308437F
:1015900061690843218B01F400710843E169084344
:1015A000216A0843A16A084321680860A0690421F0
:1015B00001EA1040616A0843216848602168E06AD6
:1015C00008612068C16921F40061C161656501207D
:1015D00084F85100002070BDF0B5244B026800254E
:1015E0002349022403260527224887B09A4213D1B3
:1015F0000A6842F480420A60096801F4804105915A
:101600000C218DE8F2006946FFF77AFA60028DE856
:10161000F1006946184811E0184B9A4212D10A6845
:1016200042F400420A60096801F4004105914FF458
:10163000A0518DE87200062104916946FFF760FA17
:1016400007B0F0BD0E488242FAD10948001D01687A
:1016500041F4005101600068694600F400500590B3
:1016600064208DE8F1000748E8E7000000380040FA
:10167000403802400008024000040240003C0040A4
:1016800000340140001002404FF0E02104280869B6
:1016900003D020F004000861704740F00400FAE72E
:1016A00010B5FFF7C5FB03488168002901D0491E2A
:1016B000816010BD2400002010B5401EB0F1807F75
:1016C00001D3012010BD4FF0E02460610F216017AD
:1016D00000F0DCFC0020A06107202061002010BD8C
:1016E00010B5FFF7DDFF10BD30B590F83820012AA6
:1016F00019D0012200F8382F02234370D1E90034B9
:101700002343D1E902452C4323430C6923434C690D
:10171000896923430B4350F8381C4B644270002105
:101720000170084630BD022030BD30B590F8382039
:10173000012A20D0012280F83820022380F8393095
:1017400003685C6824F070045C6003685C680D6882
:101750002C435C6003689C6824F080049C600368F0
:101760009C6849680C439C6080F83920002180F80F
:101770003810084630BD022030BD10B5040003D03B
:1017800094F8390010B107E0012010BD002084F862
:101790003800204600F00CF8022084F83900211DA2
:1017A000206800F04DFD012084F83900002010BDB4
:1017B00030B5036800222949022487B0B3F1804F75
:1017C00016D0274D2748AB4225D10B6843F00203C2
:1017D0000B60096801F00201059181150091CDE9C6
:1017E0000142CDE903246946FFF78AF907B030BD0D
:1017F000086840F0010008600868694600F00100D0
:1018000005904FF400600090CDE901420120CDE940
:1018100003201548E8E7154DAB4212D10F49091DC9
:101820000B6843F002030B60096801F002010591A7
:1018300069150091CDE901420321CDE903216946F3
:10184000D2E70B488342D1D1086840F0800008609D
:10185000086800F080000590C8E7000040380240AA
:10186000000400400008024000040240000401405F
:10187000001C004070B5044690F83800012817D0CD
:10188000012584F83850022084F8390020688268E5
:1018900022F0770222F47F4282600868502837D015
:1018A0000DDC202859D005DC88B3102841D151E047
:1018B000022070BD302853D040283AD13FE0602844
:1018C0002ED070280BD0B0F5805F03D0B0F5005F4C
:1018D0002FD110E02068816821F0070115E0CB6866
:1018E000D1E90121206800F016FD2168886840F0E8
:1018F000770088601DE0CB68D1E90121206800F005
:101900000AFD2068816841F48041816011E01EE099
:10191000CA684968206800F0C7FD5021206806E0C9
:10192000CA684968206800F0D0FD6021206800F096
:10193000FCFC84F83950002084F8380070BDCA6877
:101940004968206800F0B0FD40212068EFE70021E1
:101950002068ECE710212068E9E720212068E6E70D
:1019600030212068E3E770B5044690F838000D4652
:1019700001280DD0012684F83860022084F839004F
:1019800042B1042A18D0082A2AD00C2A4DD139E0B5
:10199000022070BD206800F0D1FC2068816941F010
:1019A000080181612068816921F00401816120685A
:1019B00081692A69114311E0206800F0EBFC20687E
:1019C000816941F4006181612068816921F480614D
:1019D0008161206881692A6941EA0221816124E0EC
:1019E000206800F009FD2068C16941F00801C1616B
:1019F0002068C16921F00401C1612068C1692A69B8
:101A0000114311E0206800F027FD2068C16941F40E
:101A10000061C1612068C16921F48061C1612068F1
:101A2000C1692A6941EA0221C16184F83960002054
:101A300084F8380070BD10B5040003D094F8390064
:101A400010B107E0012010BD002084F838002046C6
:101A500000F00CF8022084F83900211D206800F005
:101A6000EFFB012084F83900002010BD10B5184CA0
:101A7000036800210222174886B0A3420FD1164BFB
:101A80001C6844F008041C601B6803F008030593FD
:101A900008230093CDE90121CDE9031213E00F4C97
:101AA000A34213D10C4B1B1D1C6844F480341C60F2
:101AB0001B6803F48033059304230093CDE90121CF
:101AC0000391032104916946FFF71AF806B010BD8F
:101AD000000C00400000024040380240004001403D
:101AE00010B504460068012200F00AFC084920688D
:101AF000884202D00749884203D1416C41F4004139
:101B000041642068016841F001010160002010BDBE
:101B1000000001400004014070B5040004D094F8B6
:101B20003900002510B106E0012070BD84F838505E
:101B3000204600F021F8022084F839002068C168AE
:101B400021F40051C160204600F08CFD206801693D
:101B500021F4904101612068416921F02A0141612D
:101B60002068C16841F40051C160E563012084F838
:101B70003900002070BD00002DE9F041294A0168BC
:101B80002948022401270325072686B091420DD15A
:101B9000016841F0100101600068694600F0100022
:101BA000059068028DE8910020481EE0204A91428D
:101BB00023D11D48001F016841F400310160006815
:101BC00002AA00F4003005901820CDE9000400209E
:101BD00082E86100DFF85C8069464046FEF790FFCE
:101BE00060208DE8910069464046CDE9035600BF6C
:101BF000FEF786FF06B0BDE8F0810F4A9142F9D1A9
:101C0000016841F0200101600068694600F0200091
:101C10000590C0208DE891000820CDE903500748C9
:101C2000E6E7000000100140443802400000024096
:101C300000440040000C0240001401400008024033
:101C40007FB50F480D49002401604FF48031C0E991
:101C5000011404618461446204630125C460C0E925
:101C600007454561FEF7B2FD0A20CDE9000569464A
:101C700002940348FEF700FD7FBD000000200140F4
:101C8000E40000207FB50F480D49002401604FF4A7
:101C90008031C0E901140461846144620463012558
:101CA000C460C0E907454561FEF790FD0B20CDE912
:101CB0000005694602940348FEF7DEFC7FBD000084
:101CC0000021014028010020094808490160102135
:101CD000416000218160C160016141618161C16138
:101CE000016241628162C162FEF7BEBD00640040D4
:101CF0006C01002009480849016010214160002161
:101D00008160C160016141618161C16101624162C3
:101D10008162C162FEF7A8BD00680040AC010020EE
:101D20002DE9F0414E4886B0016841F01001016094
:101D3000016801F010010591016841F004010160A2
:101D4000016801F004010591016841F08001016022
:101D5000016801F080010591016841F00101016015
:101D6000016801F001010591016841F00201016083
:101D7000016801F002010591016841F0080101606C
:101D80000068012600F0080005901A200090002449
:101D9000CDE90164DFF8CC80694640460394FEF744
:101DA000AFFE46F630000090CDE901642E4F694643
:101DB00038460394FEF7A4FEF0030325CDE90005A1
:101DC000694602943846FEF79BFECDE90054274F42
:101DD000694638460294FEF793FE4FF4CA50CDE9A7
:101DE0000005694602943846FEF78AFE802000907E
:101DF000CDE90164694638460394FEF781FE4CF252
:101E00002700CDE90005694602941948FEF778FEDF
:101E10008120CDE90005694602944046FEF770FE38
:101E20004FF47F40CDE90004694640460294FEF736
:101E300067FE40F20470CDE900050E4D694602943C
:101E40002846FEF75DFE4FF683000090CDE9016461
:101E5000694628460394FEF753FE06B0BDE8F081BC
:101E600030380240001002400008024000000240EA
:101E700000040240000C02400B480A494FF4007273
:101E800001604FF48271416000218160C160016195
:101E9000C0E90512C1610162416281620A21C16229
:101EA000FFF758BB003800403C0200200B480A49AD
:101EB0004FF4007201604FF4827141600021816033
:101EC000C1600161C0E90512C161016241628162C4
:101ED0000A21C162FFF73EBB003C00409402002093
:101EE0000B480A494FF4806201600021C0E90112E9
:101EF000C16052100161C0E90512C1610162416215
:101F000081620A21C162FFF725BB00000034014055
:101F1000EC02002010B515488EB04FF080410160F2
:101F200007210024C0E90114FC21C0E90314FFF7D4
:101F300024FC4FF48050079007A90C48FFF79AFC47
:101F40000A48FFF778FD0B940BA908480C94FFF79B
:101F5000ECFB6020CDE9000402940C2269460348A2
:101F60000494FFF700FD0EB010BD000044030020F4
:101F700010B514488EB012490024C0E900148460E2
:101F8000C4600461FFF7F9FB4FF48050079007A984
:101F90000C48FFF76FFC0B48FFF74DFD0B940BA9A6
:101FA00008480C94FFF7C1FB6020CDE900040294BF
:101FB0000822694603480494FFF7D5FC0EB010BD13
:101FC000000400408003002010B511488AB00F497A
:101FD000016007210024C0E9011440F20D21C0E98D
:101FE0000314FFF728FD079407A909480894FFF791
:101FF0009CFB6020CDE9000402940C226946044851
:102000000494FFF7B0FC0AB010BD0000000C0040C3
:10201000BC03002010B51C4894B01A490024C0E944
:1020200000148460C46004614461FFF7A6FB4FF4B0
:1020300080500E900EA91448FFF71CFC1248FFF7C1
:10204000FAFC129412A910481394FFF76EFB4FF498
:102050000050CDE9044001940294039469460A4873
:102060000694FFF741FB6020CDE9070409940B9427
:102070000C940C2207A904480D94FFF774FC14B0CB
:1020800010BD000000040140F80300200907090EFC
:10209000002806DA00F00F0000F1E02080F8141D9F
:1020A000704700F1E02080F800147047401EB0F146
:1020B000807F01D3012070474FF0E0214861054A3D
:1020C000F02082F8140D00208861072008610020AC
:1020D000704700000FE000E010B5FEF7A9FEBDE874
:1020E0001040FFF7FDBA0000204810B5016892B01B
:1020F00041F080510160006800F0805011901C4850
:10210000016841F4404101600068022400F440404D
:1021100011900120009001908005CDE90640082033
:1021200008904FF4A870CDE9090404200B9068468C
:10213000FFF772F80D20CDE90C0400200E904FF44B
:10214000A0500F90E002109005210CA8FEF7E0FED1
:10215000FEF7E4FF4FF47A71B0FBF1F0FFF7ACFA51
:102160000420FFF791FA12B010BD00004038024081
:10217000007000401048016841F4700101600F4890
:10218000016841F0010101600C4A00210832116030
:1021900002680B4B1A400260031D0A4A1A6002686B
:1021A00022F48022026005480C3001600249580682
:1021B000803908607047000088ED00E00038024078
:1021C000FFFFF6FE10300024194B30B417481A8870
:1021D00000F1800100F1980441F82200154944F80B
:1021E0002210521C1A800022134B144C80E81C0051
:1021F000C36001230374092343748374C374C266E8
:10220000026742678267C2670868826A8262C46244
:10221000CC600A686010506391F839000228FBD046
:1022200030BC00210348FFF75BBC000034000020F5
:102230001E00002034040020007A030A40900200AF
:10224000F0B50268234B244D244E254F254C4FF00A
:10225000804C984209D0604507D0A84205D0B042D2
:1022600003D0B84201D0A04204D122F0700E4A68D7
:1022700042EA0E0298421BD0604519D0A84217D0FE
:10228000B04215D0B84213D0A04211D0164DA8428A
:102290000ED0164DA8420BD0154DA84208D0154DB2
:1022A000A84205D0144DA84202D0144DA84203D133
:1022B00022F44075CA682A4302608A68C2620A68CA
:1022C0008262984201D0A04201D1096901630121D3
:1022D0004161F0BD000001400004004000080040E2
:1022E000000C004000040140004001400044014057
:1022F0000048014000180040001C00400020004041
:1023000010B50123046A8B409C430462036A8A402F
:102310001343036210BD10B5846842EA032224F41B
:102320007F440A432243826010BD826822F070021B
:102330000A4342F0070181607047000030B5026A2D
:1023400022F001020262026A436884690D6824F087
:102350007304254322F002048A6822430B4CA042F6
:1023600002D00B4CA0420BD122F00804CA6823F41F
:10237000407322434C6922F004021C438B692343BF
:102380004360856149684163026230BD00000140DD
:102390000004014030B5026A22F010020262026AB3
:1023A000436884690D6824F4E64444EA05248D6892
:1023B00022F0200242EA05120D4DA84202D00D4D36
:1023C000A8420ED1CD6822F0800242EA05124D6982
:1023D00023F4406343EA85038D6922F0400243EA17
:1023E00085034360846149688163026230BD0000F7
:1023F000000001400004014030B5026A22F48072FE
:102400000262036A4268C46923F4007324F073050E
:102410000C682C438D6843EA05230D4DA84202D079
:102420000C4DA8420ED1CD6823F4006343EA052386
:102430004D6922F4405242EA05128D6923F480630B
:1024400042EA05124260C4614968C163036230BD5B
:10245000000001400004014030B5026A22F48052BD
:102460000262046A4268C3690D6823F4E64343EAE2
:1024700005238D6824F4005444EA0534084DA8422D
:1024800002D0084DA84204D14D6922F4804242EAAC
:1024900085124260C36149680164046230BD000076
:1024A000000001400004014010B5036A046A24F0F2
:1024B00001040462846924F0F00444EA021423F065
:1024C0000A020A438461026210BD10B5036A23F058
:1024D000100303628369046A23F4704343EA0232FF
:1024E00024F0A00343EA01118261016210BD0000E3
:1024F000084810B500680024046007488460C46080
:1025000004808470FFF760FE034884700470447098
:1025100010BD0000042A00080800002070B5424CDD
:10252000802142482278FEF7D1FB414D62784FF47A
:1025300000512846FEF7CAFB62784FF480412846D6
:10254000FEF7C4FB3B4881780F2901D2491C8170FA
:1025500003780021384C374D012243B14378012BD9
:1025600007D0022B0DD083780A2B0ED23CE00270EC
:102570000BE082780A2A01D3022206E09FED2F0B9E
:1025800008E082780A2A03D303224270817003E0B4
:102590009FED2C0B85ED020B9FED2C0B53EC102BBC
:1025A00095ED020B51EC100BFDF724FF2068416CF8
:1025B00041F4004141641AD2416C21F4006141644C
:1025C000016A21F0010101622068016A21F0040121
:1025D00001622068416821F480714160206841688F
:1025E00021F40071416070BD9FED1A0BD2E7016AC2
:1025F00041F0010101622068016A41F004010162B9
:102600002468E06AFDF7CFFE95ED021B53EC112B19
:10261000FDF7E8FD9FED111B53EC112BFDF754FE68
:10262000FDF7CEFE606370BD1C000020000C024070
:1026300000080240080000203404002000000000D0
:1026400000001440000000000000344000000000C2
:1026500000000000000000000000544000000000E6
:10266000000059402DE9F04101680446086920F452
:102670004052E068104308612268D06849F20C615A
:1026800088432369A168E569194363692B431943AA
:102690000143D1602168486920F44072A069104369
:1026A0004861E26964263225B2F5004F49494A483B
:1026B00022681DD0824201D08A426AD1FEF75EFDB7
:1026C00000EBC00101EB00106168B0468900B0FB6F
:1026D000F1F1B1FBF8F6FEF751FD00EBC00101EBA3
:1026E000001061688900B0FBF1F7FEF747FD69E073
:1026F000824201D08A4219D1FEF740FD00EBC001B1
:1027000001EB00106168B0464900B0FBF1F1B1FB8C
:10271000F8F6FEF733FD00EBC00101EB0010616835
:102720004900B0FBF1F7FEF729FD18E0FEF710FDB8
:1027300000EBC00101EB00106168B0464900B0FB3E
:10274000F1F1B1FBF8F6FEF703FD00EBC00101EB80
:10275000001061684900B0FBF1F7FEF7F9FC00EBEF
:10276000C00101EB001061685FEA4101B0FBF1F1CB
:10277000B1FBF8F06FF01801484307EB800005EB60
:102780000011B1FBF8F0216866F31F108860BDE806
:10279000F081FEF7DDFC00EBC00101EB0010616889
:1027A000B0468900B0FBF1F1B1FBF8F6FEF7D0FCC2
:1027B00000EBC00101EB001061688900B0FBF1F78C
:1027C000FEF7C6FC00EBC00101EB00106168890058
:1027D000CCE70000001401400010014002E008C8EE
:1027E000121F08C1002AFAD170477047002001E08B
:1027F00001C1121F002AFBD1704700002DED028B92
:1028000088B0FEF71DFBFFF76FFCFFF789FAFFF7B3
:1028100017FAFFF737FAFFF757FAFFF76BFA69492C
:10282000674808600846FEF734F9002500952A46F7
:10283000694664480195FEF70BF910226946614824
:10284000FEF706F95F486049143001605F49C0E94E
:1028500001154FF48041C0E9035145618561C561AF
:102860000562FEF73FFAFFF707FBFFF71FFBFFF7D5
:1028700037FBFFF74FFBFFF77BFBFFF7A5FBFFF7EE
:10288000C9FB5448524901600721C0E90115FC21E8
:10289000C0E90315FFF7CFF86020CDE900050295E8
:1028A000002269464B480495FFF75DF849484A49BC
:1028B0003C30C0E900158560C5600561FEF75DFF2D
:1028C0004448464978300C2401604FF41651C0E961
:1028D0000115C560C0E904548561C561FFF71CF9A5
:1028E0003C483F49B8304FF4E1360160C0E901652A
:1028F000C560C0E90454A101C0E90615FFF70CF951
:1029000034483849F8300160C0E90165C560C0E964
:1029100004548561C561FFF7FFF8DFF8CC80D8F873
:102920000000FDF740FD9FED318B53EC182BFDF7B8
:1029300059FCFDF745FDFFF7B9FB2E4E012738B3D3
:10294000404677603C464FF080780068FDF72BFDED
:102950008A4681464AEC109B53EC182B51EC100B25
:10296000641CFDF73FFCFDF72BFDB0FBF4F0404588
:10297000F0D24AEC109B53EC182B51EC100B746006
:10298000FDF730FCFDF71CFDB0FBF4F0FFF78EFB0C
:10299000184C7068B0602570FFF7AAFDDFF858800A
:1029A000B0680028FCD17068B060207818B1D8F801
:1029B000000012A101602770FFF7B0FD2570EFE75E
:1029C00000740040EC01002000540040A08601008B
:1029D0000040014034040020001C00400010014071
:1029E0000044004000140140000000209A99999989
:1029F0009999B93F24000020042A00084F76657297
:102A000072756E001800002000000000010203042F
:102A10000102030406070809382A00080000002004
:102A200034000000DC2700086C2A00083400002075
:102A30003C090000EC2700080024F400000000001E
:102A40000000000000000000000000000000000086
:102A50000000000000010000000000000000000075
:0C2A600001000000010000000000000068
:04000005080001AD41
:00000001FF
