:020000040800F2
:1000000008090020C1010008C9010008CB0100084F
:10001000CD010008CF010008D10100080000000058
:10002000000000000000000000000000D3010008F4
:10003000D501000800000000D7010008E1220008F7
:10004000DB010008DB010008DB010008DB01000820
:10005000DB010008DB010008DB010008DB01000810
:10006000DB010008DB010008DB010008DB01000800
:10007000DB010008DB010008DB010008DB010008F0
:10008000DB010008DB010008DB010008DB010008E0
:10009000DB010008DB010008DB010008DB010008D0
:1000A000DB010008DB010008DB010008DB010008C0
:1000B000DB010008DB010008DB010008DB010008B0
:1000C000DB010008DB010008DB010008DB010008A0
:1000D000DB010008DB010008DB010008DB01000890
:1000E000DB010008DB010008DB010008DB01000880
:1000F000DB010008DB010008DB010008DB01000870
:10010000DB010008DB010008DB010008DB0100085F
:10011000DB010008DB010008DB010008DB0100084F
:10012000DB010008DB010008DB010008DB0100083F
:10013000DB010008DB010008DB010008DB0100082F
:10014000DB010008DB010008DB010008DB0100081F
:10015000DB010008DB010008DB010008DB0100080F
:10016000DB010008DB010008DB010008DB010008FF
:10017000DB010008DB010008DB01000800000000D3
:10018000DB010008DB010008DB010008DB010008DF
:10019000DB010008DB010008DB010008DB010008CF
:1001A000DB010008DB010008DB010008DFF80CD0F0
:1001B00000F04AFA004800472D2C000808090020EA
:1001C0000648804706480047FEE7FEE7FEE7FEE7F1
:1001D000FEE7FEE7FEE7FEE7FEE7FEE77D23000819
:1001E000AD010008D2B201E000F8012B491EFBD29C
:1001F00070470022F6E710B513460A460446194632
:10020000FFF7F0FF204610BD2DE9FE4F81EA030401
:1002100004F0004421F0004100944FF0000B23F063
:10022000004350EA01045ED052EA03045BD0C3F3FA
:100230000A54C1F30A552C44A4F2F3340194A0FBF0
:100240000254C1F3130141F48011C3F3130343F4C7
:10025000801301FB024400FB034E840A970A44EA20
:10026000815447EA8357A4FB076802958D0A05FB72
:1002700007854FEA932C04FB0C542705029D4FEA97
:10028000065847EA1637B5EB08056EEB070C870EE4
:10029000920E47EA811742EA8312A7FB0201B6EBEE
:1002A0000B0164EB00042B0D43EA0C335E1844EBA6
:1002B0001C50DA465146E7FB0201C5F313044FEA2E
:1002C0000B3343EA14534FEA0432019C43EA06031A
:1002D000A4F10C040294009CCDE900B400F063F892
:1002E00003B0BDE8F08F00200146F9E70EB540F2FB
:1002F000334102910021CDE900110A460B4600F07E
:1003000052F803B000BDC1F30A5210B5C1F3130196
:1003100040F2FF3341F480119A4201DA002010BD0F
:1003200040F233439A42A2F2334203DC524200F0DD
:100330001BF810BD904010BD30B5041E71F10004D3
:1003400004DB4FF00044404264EB0101141E73F1E2
:10035000000405DB1C464FF00043524263EB0403EC
:100360008B4208BF824230BD202A04DB203A21FAAA
:1003700002F00021704721FA02F3D040C2F12002BE
:10038000914008431946704710B5141E73F10004DC
:1003900008DA401C41F1000192185B411A4301D177
:1003A00020F0010010BD2DE9F04D92469B4611B1A1
:1003B000B1FA81F202E0B0FA80F22032904600F009
:1003C00055F904460F4640EA0A0041EA0B0153463C
:1003D0005A46084313D0114653EA010019D0C8F118
:1003E00040025046FFF7C0FF05460E4650465946AC
:1003F000424600F03BF9084305D0012004E02046C6
:100400003946BDE8F08D0020054346EAE0762C43EE
:1004100037430A986305E40AA0EB08000022FD0AAE
:1004200044EA47540A3002D500200146E9E70105B5
:1004300010196941DDE9084500196941BDE8F04D31
:10044000A2E72DE9FE4F804681EA0300C00F0C466B
:10045000009021F0004123F00045B8EB0200A941D3
:1004600005D24046214690461C460B46024623F0E4
:100470000040104347D0270DC7F30A00C3F30A51C9
:100480000290401A019040286BDAC3F3130040F445
:10049000801B0098924620B10023D2EB030A63EB45
:1004A0000B0B01985946C0F14002504600F0DEF8AF
:1004B00006460D4650465946019A00F0E6F810EB04
:1004C00008006141002487EA115284EAE7731A4365
:1004D00040D0009A62B3019A012A4FEA075215DC14
:1004E000001B61EB02014FF0004202EA0752CDE926
:1004F0000042001C41F5801132462B46FFF753FFA6
:1005000003B0BDE8F08F40462146F9E7001B61EBE0
:100510000201001C41F5801300185B412018A2F570
:10052000001747EB030140EAD570B6196D4111E0A1
:100530006D084FEA360645EAC0754FEA0752001BC0
:1005400061EB0201001C41F5801149084FEA3000BF
:100550000019514132462B4603B0BDE8F04FFFF77A
:1005600013BF0098012240000023D0EB020263EB8E
:10057000E073009821464FEAE074B8EB000061EBAD
:100580000401E9E783F000435BE781F0004158E7AD
:100590002DE9FE4FC3F30A5701F000450024C1F3D3
:1005A0000A56C3F31303C1F3130143F4801312EB90
:1005B000020AA64641F48011009543EB030CA7F113
:1005C000010B16E0B0EB0A0061EB0C01071E71F1A4
:1005D000000707DA4FF00008D0EB080085F000456F
:1005E00068EB0101171A73EB0107EBD3761E0018B5
:1005F00049415E45F6DA50EA010209D0CDE900E54D
:10060000002213460296FFF7CEFE03B0BDE8F08F3E
:1006100020460099F9E7000030B5041E71F100048E
:1006200004DB4FF00044404264EB0101141E73F1FF
:10063000000405DB1C464FF00043524263EB040309
:10064000994208BF904230BD064C074D06E0E06875
:1006500040F0010394E8070098471034AC42F6D309
:10066000FFF7A8FD382F0008582F0008202A04DBC8
:10067000203A00FA02F1002070479140C2F12003B5
:1006800020FA03F3194390407047202A06DBCB176A
:10069000203A41FA02F043EAE07306E041FA02F33D
:1006A000D040C2F1200291400843194670472DE91D
:1006B000F04D81EA030404F0004B21F0004514469C
:1006C0004FF0000A23F0004150EA050220D054EA1E
:1006D00001021DD0C5F30A570246C5F31303C1F347
:1006E0001300C1F30A5640F4801543F48013A7EBBE
:1006F0000608101BD64608F2FD3873EB050002D33E
:1007000008F1010801E092185B41B8F1000F03DA2B
:1007100000200146BDE8F08D00204FF48011064610
:1007200084460EE0171B73EB050705D3121B63EB22
:10073000050306434CEA010C49084FEA30009218C1
:100740005B4150EA0107EDD152EA030012D082EA80
:10075000040083EA0501084305D0101BAB4106D213
:100760000122002306E000224FF0004302E06FF078
:10077000010253101AEB06004CEB085110EB0A0073
:1007800041EB0B01BDE8F04DFFF7FEBD4A4910B546
:10079000D1F8042322F44032C1F80423D1F8042311
:1007A00043681A43C1F8042301684A6822F480723E
:1007B0004A6001684A68036942EA03224A600168A4
:1007C0004A6822F040724A6001684A6883681A43A6
:1007D0004A6001688A6822F400628A6001688A6857
:1007E000C3681A438A60C16A6FF07062D1420168BF
:1007F0008A6822F070628A6001688A680CD0C36AD5
:100800001A438A6001688A6822F040528A6001684F
:100810008A68036B1A4301E022F040528A60016843
:100820008A6822F002028A6001688A68836942EA63
:1008300043028A60416A002901684A6815D042F47F
:1008400000624A6001684A6822F460424A600168B6
:100850004B684FF46044826A94FAA4F4B4FA84F4C6
:10086000521EA24013434B6002E022F400624A6031
:100870000168CA6A22F47002CA620168CA6A038CFB
:100880000E4C04EB03531A43CA6201688A6822F4CF
:1008900000728A6001688A68C36942EA43228A60FA
:1008A00001688A6822F480628A6001688A68406907
:1008B00042EA8020886010BD002001400000F0FF67
:1008C00078B50024009490F83C20012A19D0012228
:1008D00080F83C200A6807230568092A13D9EE68C6
:1008E0000A3A02EB420293409E43EE600B788A681C
:1008F0000A3B03EB43039A400368DD682A43DA604E
:1009000010E0022078BD2E6902EB420293409E4324
:100910002E610A788B6802EB4202934002681569E7
:100920002B4313614A681F23072A13D205686E6B95
:10093000521E02EB820293409E436E630A8893B27A
:100940000A79521E02EB820293400268556B2B43D8
:10095000536327E005680D2A12D22E6BD21F02EBDB
:10096000820293409E432E630B790A88DB1F92B26A
:1009700003EB83039A4003681D6B2A431A6311E05B
:10098000EE6A0D3A02EB820293409E43EE620B79CF
:100990000A880D3B92B203EB83039A400368DD6A39
:1009A0002A43DA62174A0368934208D10B68122B74
:1009B00005D1D2F8043343F48003C2F8043303684A
:1009C00093421BD1104B0D689D4201D0112D15D1C2
:1009D000D2F8045345F40005C2F80453096899425B
:1009E0000CD10A490A4A0968B1FBF2F101EB810115
:1009F000490000E0491E00910029FBD180F83C40ED
:100A0000002078BD002001401200001000000020EE
:100A100040420F0070B5040004D094F83D0000255A
:100A200010B106E0012070BD84F83C50204600F073
:100A30000FF8022084F83D002046FFF7A7FE25644A
:100A4000012084F83D0084F83C50002070BD000077
:100A500030B5134D0468002212490323124887B0B1
:100A6000AC4209D10C6844F480740C60096801F44C
:100A70008071059101210BE00C4DAC420ED10C6848
:100A800044F400740C60096801F4007105910221BE
:100A9000CDE900130292694600F056F907B030BD67
:100AA000002001404438024000080240002101407B
:100AB0002DE9F041040004D094F83800002518B165
:100AC00007E00120BDE8F08184F83950204600F0AD
:100AD00093F8022084F838002068016821F00201B0
:100AE00001602068016841F00101016000F01CFA1A
:100AF0000746032605E000BF00F016FAC01B0A28CF
:100B000063D820684068C007F6D020684168C907EC
:100B100068D0A169012901683FD021F080010160FE
:100B2000E0690128206801683AD021F040010160A5
:100B3000206A01282068016835D021F02001016079
:100B4000606A01282068016830D021F0100101603E
:100B5000A06A0128206801682BD021F008010160FB
:100B6000E06A01282068016826D021F004010160B4
:100B7000D4E902010843D4E904121143084361682F
:100B8000491E08432168C8612068016821F00101FD
:100B9000016000F0C9F907461CE041F08001BEE7A2
:100BA00041F04001C3E741F02001C8E741F01001E6
:100BB000CDE741F00801D2E741F00401D7E700BFDB
:100BC00000F0B2F9C01B0A2804D904F8386F0320DA
:100BD000657077E720684068C007F1D120684068F9
:100BE000C00703D0042084F838006AE7E5630120D9
:100BF00084F83800002065E7F0B5234BDFF884E087
:100C0000D0F800C0196800240225032609271F48D0
:100C10001F4A491C87B0F4450DD11960012907D13D
:100C2000116841F000711160116801F000710591C7
:100C30004FF440711CE0DFF85CE0F44520D1D2F8BD
:100C400000C04CF0806CC2F800C0D2F800C001298E
:100C50000CF0806CCDF814C0196007D1116841F018
:100C600000711160116801F0007105914FF440515D
:100C7000CDE9001502AA694682E8D00000F064F8C8
:100C800007B0F0BD0064004058000020000402409E
:100C9000403802400068004070B54379012B1AD0FB
:100CA000012646710223037105682C6840F6FE7325
:100CB00093409C43D1E900310B43934023432B6085
:100CC00001680B68C0249440A3430B6006710021A7
:100CD0004171084670BD022070BD70B5040003D09C
:100CE0002079002510B105E0012070BD6571204616
:100CF00000F008F8022020712561012020710020F9
:100D000070BD000000B500680C4987B0884212D160
:100D10000B48016841F0005101600068694600F02D
:100D20000050059030200090032001900020029098
:100D3000044800F009F807B000BD0000007400404E
:100D400040380240000002402DE9F84FDFF890B132
:100D500000224FF001084FF0030A4FF00F090BF18A
:100D6000040E00BF0B6808FA02F42340A3426ED1C0
:100D70004D68022D01D0122D0ED1D50800EB850C47
:100D8000DCF820505607F70E09FA07F6B5430E694E
:100D9000BE402E43CCF82060066855000F790AFA51
:100DA00005FC07F0030726EA0C06AF40374307604F
:100DB0004E68012E05D0022E03D0112E01D0122E26
:100DC0000ED18768CE6827EA0C07AE403E438660A6
:100DD0004668A6430C79C4F300149440344344603D
:100DE000C4688E6824EA0C04AE402643C6604C6892
:100DF000E4006FD53B4C256845F4804525602468A8
:100E000022F0030504F480440094374C2E19D6F8E0
:100E1000084895072F0F09FA07F5AC43334DA84250
:100E200001D100252EE0324DA84201D1012529E053
:100E3000304DA84201D1022524E02F4DA84201D116
:100E400003251FE02D4DA84202D104251AE041E000
:100E50002B4DA84201D1052514E02A4DA84201D10D
:100E600006250FE0284DA84201D107250AE0274DAD
:100E7000A84201D1082505E0254DA84201D1092548
:100E800000E00A25BD402543C6F80858DBF80040BD
:100E90005D464E689C43F60300D51C432C60DEF88B
:100EA000004075464E689C43B60300D51C432C6039
:100EB0000B4D08352C684E689C43F60200D51C4348
:100EC0002C60074D0C352C684E689C43B60200D54B
:100ED0001C432C60521C102AFFF444AFBDE8F88F6D
:100EE000003C014044380240003001400000024014
:100EF0000004024000080240000C024000100240C2
:100F00000014024000180240001C02400020024071
:100F1000002402400069084000D0012070470AB157
:100F2000816170470904FBE70148006870470000D1
:100F30004800002070B5040004D094F83500002566
:100F400010B106E0012070BD84F83450204600F056
:100F500071F8022084F835002068016821F0010151
:100F6000016000F01DFA31492268B0FBF1F15160D7
:100F70002F4A6368934206D94FF4967359434FF44E
:100F80007A73B1FBF3F12368491C196261689142DD
:100F90000BD84900B0FBF1F2C2F30B02042A01D2D4
:100FA000042019E0B0FBF1F016E0A36883B301EB75
:100FB000C10202EB0112B0FBF2F242F480421205D0
:100FC0002CD06BB301EBC10202EB0111B0FBF1F0CD
:100FD00040F4804040F400402168C861D4E9070132
:100FE000084321680860D4E9031008432168886039
:100FF000D4E9050108432168C8602068016841F010
:1010000001010160A563012084F83500002070BD56
:10101000FFE701EB4102B0FBF2F2D0E70120DBE792
:1010200001EB4101B0FBF1F0D4E7000040420F00BA
:10103000A086010000B500680E4987B0884216D12D
:10104000C020009012200190012002900320039004
:101050000420049069460848FFF776FE07480168B7
:1010600041F400110160006800F40010059007B021
:1010700000BD00000054004000040240403802401F
:1010800002480168491C01607047000048000020C8
:101090000B4810B5016841F400710160016841F42A
:1010A00080610160016841F480710160032000F0FB
:1010B00045F8002000F006F800F015F8002010BDFB
:1010C000003C024010B5044600F050F94FF47A712C
:1010D000B0FBF1F000F018FC00222146501E00F099
:1010E0000DF8002010BD10B5032000F027F80022F5
:1010F000BDE810401146501EAFF30080F0B40E4B17
:101100001B680C46C3F30223C3F10705042D00D965
:101110000425191D072901D2002300E0DB1E01264A
:1011200006FA05F1491E214099409E40761E164060
:101130003143F0BC01F0AEB80CED00E0064900F020
:10114000070208684FF6FF03184040EA0220034AEE
:1011500010430860704700000CED00E00000FA0545
:101160002DE9F05FDFF8FCA104460F46DAF8000035
:10117000DFF8F48100F00F017B4807F0FF0941F22E
:10118000883508F10808B94262D28AF80090DAF886
:10119000001001F00F01B9427ED12178890707D5EF
:1011A000D8F80020A36822F0F0021A43C8F8002003
:1011B0002178C9072ED0616801291AD002291BD0D5
:1011C000032919D000688007002865DAD8F80000E4
:1011D000464620F003000843C8F80000FFF7A4FECD
:1011E00007466068012810D002281AD003281ED0B4
:1011F00029E000688003E7E700688001E4E700BFBA
:10120000FFF792FEC01BA84259D83068C0F3810096
:101210000128F5D189E000BFFFF786FEC01BA84278
:101220004DD83068C0F381000228F5D17DE03068E8
:10123000FFF77AFEC01BA842F9D940E0FFF774FE21
:10124000C01BA8423BD8306810F00C0FF6D16CE000
:101250002178890707D5D8F80020A36822F0F0028A
:101260001A43C8F800202178C9074CD061680129C9
:1012700028D0022929D0032927D000688007002818
:1012800049DAD8F8002022F003020A43C8F8002007
:10129000FFF74AFE064600E03DE0606801281DD0E9
:1012A000022829D0032838D0AB464546286810F0DC
:1012B0000C0F28D0FFF738FE811B5945F6D90320C3
:1012C000BDE8F09F00688003D9E700688001D6E799
:1012D000FFF72AFE811B594502D9F0E7AB46454688
:1012E0002868C0F381000128F2D10CE0FFF71CFE52
:1012F000811B594502D9E2E7AB4645462868C0F351
:1013000081000228F2D18AF80090DAF8000000F09B
:101310000F00B84209D00120D2E744462068FFF709
:1013200003FE801BA842F9D9C9E72078400707D5FA
:10133000D8F80010E26821F4E0511143C8F8001019
:101340002078000708D5D8F80010226921F4604100
:1013500041EAC201C8F800100020FFF7B3FE0020E8
:10136000AEE70000003C02400038024010B500F03B
:1013700043F808490968F02292FAA2F201F0F0015C
:10138000B2FA82F2D140044A515CC8400349086075
:1013900010BD000008380240282F0008000000207F
:1013A00010B5FFF7E3FF074909684FF4E05292FADE
:1013B000A2F201F4E051B2FA82F2D140024A515C49
:1013C000C84010BD08380240282F000810B5FFF7AC
:1013D000CDFF074909684FF4604292FAA2F201F486
:1013E0006041B2FA82F2D140024A515CC84010BD5D
:1013F00008380240282F000830B51948006810F05E
:101400000C01184812D0441004290ED008290DD11F
:101410001349091F0A6802F03F030A68550247F69C
:10142000C07204D5B4FBF3F003E0204630BDB0FB3E
:10143000F3F00B680968134092FAA2F2B2FA82F252
:10144000D34058434FF4403292FAA2F201F44031B3
:10145000B2FA82F2D140491C4900B0FBF1F030BD34
:10146000083802400024F4002DE9F84F04460078C3
:10147000DFF81CA3C74DC0074FF000064BD0DAF8C9
:1014800000105046C1F38101012908D00068C0F363
:10149000810002280AD1281D0068400206D528686C
:1014A000800338D56068002871D034E0DFF8E4921A
:1014B00009F1020989F80060FFF736FD804641F224
:1014C000883705E0FFF730FDA0EB0800B8427DD873
:1014D00028688003F6D4207989F80000606868B134
:1014E000FFF722FD804605E0FFF71EFDA0EB080098
:1014F000B842ECD828688003F6D50CE0FFF714FD5D
:10150000804605E0FFF710FDA0EB0800B842DED8EA
:1015100028688003F6D420789F4F80074FF0010B96
:1015200045D5DAF80010504611F00C0F4FF0F809CD
:1015300009D00068C0F3810002280BD19448001F35
:101540000068400206D42868800714D5E0680128A6
:101550001DD110E0E068D8B1C7F800B0FFF7E4FC97
:10156000804605E0FFF7E0FCA0EB08006428AED859
:1015700028688007F6D5286899FAA9F22169B2FA95
:1015800082F220F0F8009140084328600FE0FCE070
:101590003E60FFF7C9FC804606E000BFFFF7C4FCD1
:1015A000A0EB0800642811D828688007F6D42078BA
:1015B000000729D5DFF8D8917848616909F16C09ED
:1015C00099B1C0F800B0FFF7AFFC00E086E08046BC
:1015D00006E000BFFFF7A8FCA0EB080064287DD858
:1015E000D9F800008007F5D50EE00660FFF79CFCF7
:1015F000804605E0FFF798FCA0EB080064286DD852
:10160000D9F800008007F5D4207840075AD5604803
:101610003830016841F0805101600068DFF8809146
:1016200000F080500090D9F8001041F48071C9F8A2
:101630000010FFF779FC804606E000BFFFF774FC5E
:10164000A0EB0800642849D8D9F80000C005F5D5FA
:10165000DFF83C8108F1680888F80060FFF764FC57
:1016600041F28839009005E0FFF75EFC0099411ACD
:10167000494533D8D8F800008007F5D4207A88F897
:101680000000A06878B1FFF74FFC009006E000BFB3
:10169000FFF74AFC0099411A49456ED8D8F8000076
:1016A0008007F5D50EE0FFF73FFC009006E000BF95
:1016B000FFF73AFC0099411A49455ED8D8F8000076
:1016C0008007F5D4A069E8B3DAF80010C1F381010E
:1016D00002295AD002283E6605D000E04DE0FFF70F
:1016E00023FC04464CE0FFF71FFC064605E000BF64
:1016F000FFF71AFC801B64283FD828688001F7D4C4
:10170000D4E90701084347F6C07292FAA2F2616A6F
:10171000B2FA82F29140A26A4FF0FF3303EB520219
:101720004FF4403393FAA3F3B3FA83F39A4011438F
:1017300008434FF0706292FAA2F2E16AB2FA82F2C2
:10174000914000E01FE008431149091F0860C7F8F5
:1017500060B0FFF7E9FB044605E000BFFFF7E4FBDC
:10176000001B642809D828688001F7D50BE000BF6A
:10177000FFF7DAFB001B642802D90320BDE8F88FCD
:1017800028688001F4D40020F8E70120F6E7000083
:10179000083802400038024000004742800E4742AD
:1017A0000070004070B5040004D094F8510000258A
:1017B00010B106E0012070BD84F85050204600F0C2
:1017C00033F8022084F851002068016821F04001BC
:1017D0000160D4E901010843D4E90312114308432D
:1017E00061690843218B01F400710843E1690843F2
:1017F000216A0843A16A084321680860A06904219E
:1018000001EA1040616A0843216848602168E06A83
:1018100008612068C16921F40061C161656501202A
:1018200084F85100002070BDF0B5244B02680025FB
:101830002349022403260527224887B09A4213D160
:101840000A6842F480420A60096801F48041059107
:101850000C218DE8F2006946FFF776FA60028DE808
:10186000F1006946184811E0184B9A4212D10A68F3
:1018700042F400420A60096801F4004105914FF406
:10188000A0518DE87200062104916946FFF75CFAC9
:1018900007B0F0BD0E488242FAD10948001D016828
:1018A00041F4005101600068694600F40050059061
:1018B00064208DE8F1000748E8E7000000380040A8
:1018C000403802400008024000040240003C004052
:1018D00000340140001002404FF0E0210428086964
:1018E00003D020F004000861704740F00400FAE7DC
:1018F00010B5FFF7C5FB03488168002901D0491ED8
:10190000816010BD4C00002010B5401EB0F1807FFA
:1019100001D3012010BD4FF0E02460610F2160175A
:1019200000F0B8FC0020A06107202061002010BD5D
:1019300010B5FFF7DDFF10BD30B590F83820012A53
:1019400019D0012200F8382F02234370D1E9003466
:101950002343D1E902452C4323430C6923434C69BB
:10196000896923430B4350F8381C4B6442700021B3
:101970000170084630BD022030BD30B590F83820E7
:10198000012A20D0012280F83820022380F8393043
:1019900003685C6824F070045C6003685C680D6830
:1019A0002C435C6003689C6824F080049C6003689E
:1019B0009C6849680C439C6080F83920002180F8BD
:1019C0003810084630BD022030BD10B5040003D0E9
:1019D00094F8390010B107E0012010BD002084F810
:1019E0003800204600F00CF8022084F83900211D50
:1019F000206800F0EDFC012084F83900002010BDC3
:101A000030B5036800222949022487B0B3F1804F22
:101A100016D0274D2748AB4225D10B6843F002036F
:101A20000B60096801F00201059181150091CDE973
:101A30000142CDE903246946FFF786F907B030BDBE
:101A4000086840F0010008600868694600F001007D
:101A500005904FF400600090CDE901420120CDE9EE
:101A600003201548E8E7154DAB4212D10F49091D77
:101A70000B6843F002030B60096801F00201059155
:101A800069150091CDE901420321CDE903216946A1
:101A9000D2E70B488342D1D1086840F0800008604B
:101AA000086800F080000590C8E700004038024058
:101AB000000400400008024000040240000401400D
:101AC000001C004070B5044690F83800012817D07B
:101AD000012584F83850022084F839002068826893
:101AE00022F0770222F47F4282600868502837D0C3
:101AF0000DDC202859D005DC88B3102841D151E0F5
:101B0000022070BD302853D040283AD13FE06028F1
:101B10002ED070280BD0B0F5805F03D0B0F5005FF9
:101B20002FD110E02068816821F0070115E0CB6813
:101B3000D1E90121206800F0ABFC2168886840F001
:101B4000770088601DE0CB68D1E90121206800F0B2
:101B50009FFC2068816841F48041816011E01EE0B3
:101B6000CA684968206800F05BFD5021206806E0E3
:101B7000CA684968206800F064FD6021206800F0B0
:101B800091FC84F83950002084F8380070BDCA6890
:101B90004968206800F044FD40212068EFE70021FB
:101BA0002068ECE710212068E9E720212068E6E7BB
:101BB00030212068E3E770B5044690F838000D4600
:101BC00001280DD0012684F83860022084F83900FD
:101BD00042B1042A18D0082A2AD00C2A4DD139E063
:101BE000022070BD206800F065FC2068816941F02A
:101BF000080181612068816921F004018161206808
:101C000081692A69114311E0206800F07FFC206897
:101C1000816941F4006181612068816921F48061FA
:101C20008161206881692A6941EA0221816124E099
:101C3000206800F09DFC2068C16941F00801C16185
:101C40002068C16921F00401C1612068C1692A6965
:101C5000114311E0206800F0BBFC2068C16941F429
:101C60000061C1612068C16921F48061C16120689F
:101C7000C1692A6941EA0221C16184F83960002002
:101C800084F8380070BD10B5040003D094F8390012
:101C900010B107E0012010BD002084F83800204674
:101CA00000F00CF8022084F83900211D206800F0B3
:101CB0008FFB012084F83900002010BD10B5184CAE
:101CC000036800210222174886B0A3420FD1164BA9
:101CD0001C6844F008041C601B6803F008030593AB
:101CE00008230093CDE90121CDE9031213E00F4C45
:101CF000A34213D10C4B1B1D1C6844F480341C60A0
:101D00001B6803F48033059304230093CDE901217C
:101D10000391032104916946FFF716F806B010BD40
:101D2000000C0040000002404038024000400140EA
:101D300070B5040004D094F83900002510B106E015
:101D4000012070BD84F83850204600F021F80220B0
:101D500084F839002068C16821F40051C160204630
:101D600000F072FD2068016921F490410161206852
:101D7000416921F02A0141612068C16841F40051A4
:101D8000C160E563012084F83900002070BD0000C7
:101D90002DE9F041294A0168294802240127032539
:101DA000072686B091420DD1016841F01001016013
:101DB0000068694600F01000059068028DE8910007
:101DC00020481EE0204A914223D11D48001F01688F
:101DD00041F400310160006802AA00F4003005906F
:101DE0001820CDE90004002082E86100DFF85C8063
:101DF00069464046FEF7A8FF60208DE891006946DD
:101E00004046CDE9035600BFFEF79EFF06B0BDE891
:101E1000F0810F4A9142F9D1016841F0200101603F
:101E20000068694600F020000590C0208DE8910010
:101E30000820CDE903500748E6E700000010014004
:101E4000443802400000024000440040000C0240C0
:101E500000140140000802407FB50F480D490024DE
:101E600001604FF44031C0E90114046184614462AF
:101E700004630125C460C0E907454561FEF7CAFD5A
:101E80000A20CDE90005694602940348FEF718FDD3
:101E90007FBD000000200140800000207FB50F487A
:101EA0000D49002401604FF44031C0E90114046180
:101EB0008461446204630125C460C0E9074545614B
:101EC000FEF7A8FD0B20CDE9000569460294034802
:101ED000FEF7F6FC7FBD000000210140C400002099
:101EE0000948084901601021416000218160C160FA
:101EF000016141618161C161016241628162C162CE
:101F0000FEF7D6BD006400400801002009480849DA
:101F100001601021416000218160C1600161416167
:101F20008161C161016241628162C162FEF7C0BD2F
:101F300000680040480100202DE9F0414E4886B07D
:101F4000016841F010010160016801F01001059184
:101F5000016841F004010160016801F0040105918C
:101F6000016841F080010160016801F08001059184
:101F7000016841F001010160016801F00101059172
:101F8000016841F002010160016801F00201059160
:101F9000016841F0080101600068012600F00800B6
:101FA00005901A2000900024CDE90164DFF8CC8070
:101FB000694640460394FEF7C7FE46F6300000909F
:101FC000CDE901642E4F694638460394FEF7BCFE06
:101FD000F0030325CDE90005694602943846FEF773
:101FE000B3FECDE90054274F694638460294FEF708
:101FF000ABFE4FF4CA50CDE900056946029438465D
:10200000FEF7A2FE80200090CDE9016469463846C3
:102010000394FEF799FE4CF22700CDE900056946CE
:1020200002941948FEF790FE8120CDE9000569462B
:1020300002944046FEF788FE4FF47F40CDE900044D
:10204000694640460294FEF77FFE40F20470CDE9F7
:1020500000050E4D694602942846FEF775FE4FF6C0
:1020600083000090CDE90164694628460394FEF799
:102070006BFE06B0BDE8F08130380240001002402F
:10208000000802400000024000040240000C024030
:102090000B480A494FF4007201604FF482714160AD
:1020A00000218160C1600161C0E90512C161016266
:1020B000416281620A21C162FFF774BB00380040AF
:1020C000D80100200B480A494FF4007201604FF418
:1020D0008271416000218160C1600161C0E9051227
:1020E000C1610162416281620A21C162FFF75ABB8C
:1020F000003C0040300200200A4809494FF40072B9
:102100000160002141608160C1600161C0E9051288
:10211000C1610162416281620A21C162FFF742BB73
:10212000003401408802002010B514488EB04FF0F2
:1021300080410024C0E900148460C4600461FFF79A
:1021400044FC4FF48050079007A90C48FFF7BAFCF5
:102150000A48FFF798FD0B940BA908480C94FFF769
:102160000CFC6020CDE9000402940C22694603486F
:102170000494FFF720FD0EB010BD0000E002002027
:1021800010B514488EB012490024C0E900148460D0
:10219000C4600461FFF719FC4FF48050079007A951
:1021A0000C48FFF78FFC0B48FFF76DFD0B940BA954
:1021B00008480C94FFF7E1FB6020CDE9000402948D
:1021C0000822694603480494FFF7F5FC0EB010BDE1
:1021D000000400401C03002010B50F488AB00D49D0
:1021E0000024C0E900148460C4600461FFF74BFD63
:1021F000079407A908480894FFF7BFFB6020CDE9C2
:10220000000402940C22694603480494FFF7D3FCAF
:102210000AB010BD000C00405803002010B51C4847
:1022200094B01A490024C0E900148460C4600461B9
:102230004461FFF7CAFB4FF480500E900EA914487A
:10224000FFF740FC1248FFF71EFD129412A9104838
:102250001394FFF792FB4FF40050CDE90440019432
:102260000294039469460A480694FFF765FB6020D0
:10227000CDE9070409940B940C940C2207A9044897
:102280000D94FFF798FC14B010BD0000000401404D
:10229000940300200907090E002806DA00F00F0059
:1022A00000F1E02080F8141D704700F1E02080F874
:1022B00000147047401EB0F1807F01D301207047A9
:1022C0004FF0E0214861054AF02082F8140D00200B
:1022D0008861072008610020704700000FE000E0DF
:1022E00010B5FEF7CDFEBDE81040FFF721BB0000A2
:1022F000204810B5016892B041F08051016000683B
:1023000000F0805011901C48016841F44041016088
:102310000068022400F440401190012000900190D8
:102320008005CDE90640082008904FF4A870CDE95B
:10233000090404200B906846FFF796F80D20CDE9BC
:102340000C0400200E904FF4A0500F90E00210906B
:1023500005210CA8FEF704FFFFF708F84FF4FA5127
:10236000B0FBF1F0FFF7D0FA0020FFF7B5FA12B09A
:1023700010BD000040380240007000401048016865
:1023800041F4700101600F48016841F001010160F2
:102390000C4A00210832116002680B4B1A4002609F
:1023A000031D0A4A1A60026822F48022026005486E
:1023B0000C300160024958068039086070470000FF
:1023C00088ED00E000380240FFFFF6FE10300024E8
:1023D000F0B50268234B244D244E254F254C4FF079
:1023E000804C984209D0604507D0A84205D0B04241
:1023F00003D0B84201D0A04204D122F0700E4A6846
:1024000042EA0E0298421BD0604519D0A84217D06C
:10241000B04215D0B84213D0A04211D0164DA842F8
:102420000ED0164DA8420BD0154DA84208D0154D20
:10243000A84205D0144DA84202D0144DA84203D1A1
:1024400022F44075CA682A4302608A68C2620A6838
:102450008262984201D0A04201D109690163012141
:102460004161F0BD00000140000400400008004050
:10247000000C0040000401400040014000440140C5
:102480000048014000180040001C004000200040AF
:1024900010B5846842EA032224F47F440A432243AD
:1024A000826010BD826822F070020A4342F0070188
:1024B0008160704730B5026A22F001020262026A4E
:1024C000436884690D6824F07304254322F00204F4
:1024D0008A6822430B4CA04202D00B4CA0420BD185
:1024E00022F00804CA6823F4407322434C6922F0A6
:1024F00004021C438B69234343608561496841633F
:10250000026230BD000001400004014030B5026AA3
:1025100022F010020262026A436884690D6824F4A2
:10252000E64444EA05248D6822F0200242EA0512BE
:102530000D4DA84202D00D4DA8420ED1CD6822F01B
:10254000800242EA05124D6923F4406343EA8503A1
:102550008D6922F0400243EA850343608461496843
:102560008163026230BD00000000014000040140B0
:1025700030B5026A22F480720262036A4268C4695A
:1025800023F4007324F073050C682C438D6843EA30
:1025900005230D4DA84202D00C4DA8420ED1CD68A6
:1025A00023F4006343EA05234D6922F4405242EAD2
:1025B00005128D6923F4806342EA05124260C4610A
:1025C0004968C163036230BD00000140000401405E
:1025D00030B5026A22F480520262046A4268C3691A
:1025E0000D6823F4E64343EA05238D6824F4005480
:1025F00044EA0534084DA84202D0084DA84204D14F
:102600004D6922F4804242EA85124260C361496802
:102610000164046230BD000000000140000401407C
:1026200010B5036A046A24F001040462846924F08A
:10263000F00444EA021423F00A020A4384610262AD
:1026400010BD10B5036A23F0100303628369046AA6
:1026500023F4704343EA023224F0A00343EA011159
:102660008261016210BD000010B5082000F03CFC42
:102670000449002009680860BDE810402021024894
:10268000FDF7B7BD242F0008600000202DE9F047BA
:10269000624F4FF400682DED068B41463846FEF739
:1026A00039FC5F4C4FF480594946E0763846FEF7D6
:1026B00031FC20764FF4005529463846FEF72AFCB7
:1026C00060766E0031463846FEF724FCFDF70EFEBC
:1026D000C4E900014FF4004A51463846FEF71AFC9F
:1026E000FDF704FEC4E90201207E18B1617E09B144
:1026F000012100E00021217700B10120617E494FD6
:102700009FED499B9FED4AAB01B1012148406077A5
:1027100097ED001B94ED000B53EC112B51EC100BBB
:10272000FDF70AFE01D1607E34E094ED020B00F06B
:1027300047F9B0EE408AF0EE608A00F0C9FB30B98C
:10274000B0EE480AF0EE680A00F0A0FB20B1B0EE4F
:10275000498AF0EE698A0BE09FED371BB0EE480A1C
:10276000F0EE680A00F0B8F9B0EE408AF0EE608A48
:1027700053EC192B51EC180BFDF7DEFD51EC180B47
:1027800005D281F00041FDF7BEFD404201E0FDF7BA
:10279000BAFDC0B2A07694ED020B53EC1A2B51ECAB
:1027A000100BFDF7C9FD02D184ED049B01E084ED1F
:1027B00004AB4146DFF88880E27E4046FEF7AFFB7F
:1027C000227F49464046FEF7AAFB627F29464046E3
:1027D000FEF7A5FBA27E31464046FEF7A0FB94ED36
:1027E000040B51EC100BFDF78EFDC2B25146404672
:1027F000FEF795FB134C3A7A29462046FEF78FFBED
:102800003A7A31462046FEF78AFB7A7A4046BDEC9A
:10281000068B8021BDE8F047FEF781BB0010024027
:102820006000002008000020000000000000000000
:10283000000000000000F03F0000000000007040B9
:10284000000C0240000802402DE9F04101680446F6
:10285000086920F44052E068104308612268D0689B
:1028600049F20C6188432369A168E56919436369EA
:102870002B4319430143D1602168486920F4407219
:10288000A06910434861E26964263225B2F5004F21
:1028900049494A4822681DD0824201D08A426AD101
:1028A000FEF794FD00EBC00101EB00106168B0463B
:1028B0008900B0FBF1F1B1FBF8F6FEF787FD00EB04
:1028C000C00101EB001061688900B0FBF1F7FEF771
:1028D0007DFD69E0824201D08A4219D1FEF776FD82
:1028E00000EBC00101EB00106168B0464900B0FB8D
:1028F000F1F1B1FBF8F6FEF769FD00EBC00101EB69
:10290000001061684900B0FBF1F7FEF75FFD18E0C9
:10291000FEF746FD00EBC00101EB00106168B04618
:102920004900B0FBF1F1B1FBF8F6FEF739FD00EB21
:10293000C00101EB001061684900B0FBF1F7FEF740
:102940002FFD00EBC00101EB001061685FEA41015F
:10295000B0FBF1F1B1FBF8F06FF01801484307EB61
:10296000800005EB0011B1FBF8F0216866F31F1041
:102970008860BDE8F081FEF713FD00EBC00101EBBC
:1029800000106168B0468900B0FBF1F1B1FBF8F6C8
:10299000FEF706FD00EBC00101EB00106168890045
:1029A000B0FBF1F7FEF7FCFC00EBC00101EB0010FF
:1029B00061688900CCE7000000140140001001406C
:1029C0002DE9F0412DED020B9FED3D0B2DED028B1E
:1029D0009FED3D8BDDE90254C4F30A50A0F2FF36AF
:1029E000142E37DA002E18DA53EC102B9DED020B63
:1029F00051EC100BFDF725FD53EC182BFDF70CFEE9
:102A000057D2002CA4BF0024254652DA24F00040FF
:102A1000284318BF2E4C4CD01AE02E4820FA06F757
:102A200004EA070028431FD053EC102B9DED020B46
:102A300051EC100BFDF705FD53EC182BFDF7ECFDE9
:102A400037D2002C03DA4FF48010F0400444BC432A
:102A500000252EE0332E07DCA6F114004FF0FF31E5
:102A600021FA00F73D4206D19DED020BBDEC028B31
:102A700002B0BDE8F08153EC102B9DED020B51EC40
:102A8000100BFDF782FD53EC182BFDF7C5FD10D29E
:102A9000002C0DDA142E08BF641C09D0C6F13400D6
:102AA000012101FA00F02844A84238BF641C054601
:102AB000BD43CDE902549DED020BD7E700000000B5
:102AC0009C7500883CE4377E000000000000000098
:102AD0000000F0BFFFFF0F0010B52DED040B86B016
:102AE0009DED060B10EE100A10EE901A8DED000B06
:102AF000002818BF0120084320F00040C0F17F608B
:102B000000F1E040C00F21D19DED080B10EE101A2E
:102B100010EE900A8DED000B002918BF012108432B
:102B200020F00040C0F17F6000F1E040C00F0DD107
:102B300029490798B1EB400F04BF0698002842D0FE
:102B40000998400004BF089800283CD09DED080B70
:102B500053EC102B9DED060B51EC100BFDF718FDFF
:102B6000CDE902019DED020B40F2FF7110EE900ADB
:102B70008DED000B31EA105021D00798039900F039
:102B8000004001F00041884219D09DED080B8DED09
:102B9000040B9DED020B8DED000B10EE900A0599D4
:102BA00061F31E0005909DED041B9DED020B51ECA1
:102BB000110B53EC102BFDF7E8FCCDE902019DED64
:102BC000020B0AB010BD012000F02AF80AB0BDE8DF
:102BD000104000F005B800000000E0FF0000000019
:102BE0009FED050B10B553EC102B51EC100BFDF7BE
:102BF0005EFD41EC100B10BD000000000000000065
:102C000002E008C8121F08C1002AFAD170477047B5
:102C1000002001E001C1121F002AFBD17047000013
:102C200001490860704700005C0000202DED028B18
:102C300088B0FEF72DFAFFF75BFBFFF77DF9FFF792
:102C40000BF9FFF72BF9FFF74BF9FFF75FF967492E
:102C5000654808600846FEF740F8002500952A46BA
:102C6000694662480195FEF717F8102269465F48E9
:102C7000FEF712F85D485E49143001605D49C0E915
:102C800001154FF48041C0E9035145618561C5617B
:102C90000562FEF74FF9FFF7FBF9FFF713FAFFF7AD
:102CA0002BFAFFF741FAFFF76BFAFFF795FAFFF7F8
:102CB000B5FA52485049C0E900158560C560056104
:102CC000FEF7E1FF6020CDE900050295002269468C
:102CD0004A480495FEF76FFF484849493C30C0E92F
:102CE00000158560C5600561FEF76FFE43484549E4
:102CF00078304FF4E13480E832000C26C560C0E93A
:102D000004568561C561FFF713F83C483E49B83069
:102D100080E83200C560C0E90456B101C0E906157B
:102D2000FFF706F835483949F83080E83200C560C9
:102D3000C0E904568561C561FEF7FAFF344F386873
:102D4000FDF7D4FA9FED338B53EC182BFDF75CFAAB
:102D5000FDF7D9FAFFF7AEFADFF8C090012640B3CD
:102D6000C9F8046034464FF080783868FDF7BEFA41
:102D70008A4607464AEC107B53EC182B51EC100B9B
:102D8000641CFDF741FAFDF7BEFAB0FBF4F04045D4
:102D9000F0D24AEC107B53EC182B51EC100BC9F815
:102DA0000440FDF731FAFDF7AEFAB0FBF4F0FFF79F
:102DB00081FA1A4FD9F80400C9F808004C463D7052
:102DC000FFF752FCDFF85880A0680028FCD160684B
:102DD000A060387818B1D8F8000012A101603E70E8
:102DE000FFF754FC3D70EFE70074004088010020BD
:102DF00000540040A086010000400140D0030020A4
:102E0000001C00400010014000440040001401403C
:102E1000000000207B14AE47E17A843F4C00002084
:102E2000242F00084F76657272756E001CB503483A
:102E30000190002000909DED000B1CBD0000F07F74
:102E40004FF0FF4000EE100A704700001CB5034829
:102E50000190002000909DED000B1CBD0000F0FFD4
:102E6000014800EE100A7047000080FF1CB50348BF
:102E70000190002000909DED000B1CBD0000F8FFAC
:102E8000014800EE100A70470000C0FF10B50F4C5B
:102E90002DED028BB0EE408AF0EE608A94ED040BCB
:102EA00051EC180B53EC102BFDF746FA08D094EDBB
:102EB000060B51EC180B53EC102BFDF73DFA03D128
:102EC0000120BDEC028B10BD0020FAE7200000209D
:102ED00010B553EC102B51EC100BFDF72DFA01D06F
:102EE000012010BD002010BD10B5FFF7BFFF0C4C36
:102EF00084ED080BFFF7C4FF84ED020AFFF796FF8D
:102F000084ED040BFFF79CFF84ED000AFFF79EFFA2
:102F100084ED060BFFF7A4FF84ED010A10BD00004D
:102F2000200000201800002000000000010203041F
:102F30000102030406070809582F000800000020BA
:102F400060000000002C0008B82F0008600000207E
:102F5000A8080000102C00080024F4000000000065
:102F6000000000000000F03F010000000000000031
:102F70000000000000000000000000000000000051
:102F80000000000000000000000000000000000041
:102F90000000000000000000000000000000000031
:102FA000000000000000000001000000010000001F
:082FB000000000000000000019
:04000005080001AD41
:00000001FF
